{
  "contractName": "Payout",
  "abi": [
    {
      "constant": false,
      "inputs": [],
      "name": "renounceOwnership",
      "outputs": [],
      "payable": false,
      "stateMutability": "nonpayable",
      "type": "function"
    },
    {
      "constant": true,
      "inputs": [],
      "name": "owner",
      "outputs": [
        {
          "name": "",
          "type": "address"
        }
      ],
      "payable": false,
      "stateMutability": "view",
      "type": "function"
    },
    {
      "constant": true,
      "inputs": [],
      "name": "isOwner",
      "outputs": [
        {
          "name": "",
          "type": "bool"
        }
      ],
      "payable": false,
      "stateMutability": "view",
      "type": "function"
    },
    {
      "constant": false,
      "inputs": [
        {
          "name": "newOwner",
          "type": "address"
        }
      ],
      "name": "transferOwnership",
      "outputs": [],
      "payable": false,
      "stateMutability": "nonpayable",
      "type": "function"
    },
    {
      "inputs": [
        {
          "name": "rate",
          "type": "uint256"
        },
        {
          "name": "interval",
          "type": "uint256"
        }
      ],
      "payable": false,
      "stateMutability": "nonpayable",
      "type": "constructor"
    },
    {
      "anonymous": false,
      "inputs": [
        {
          "indexed": false,
          "name": "owner",
          "type": "address"
        },
        {
          "indexed": false,
          "name": "amount",
          "type": "uint256"
        }
      ],
      "name": "payoutsWithdrawn",
      "type": "event"
    },
    {
      "anonymous": false,
      "inputs": [
        {
          "indexed": true,
          "name": "previousOwner",
          "type": "address"
        },
        {
          "indexed": true,
          "name": "newOwner",
          "type": "address"
        }
      ],
      "name": "OwnershipTransferred",
      "type": "event"
    },
    {
      "constant": false,
      "inputs": [
        {
          "name": "owner",
          "type": "address"
        },
        {
          "name": "token",
          "type": "uint256"
        }
      ],
      "name": "calculate",
      "outputs": [],
      "payable": false,
      "stateMutability": "nonpayable",
      "type": "function"
    },
    {
      "constant": false,
      "inputs": [
        {
          "name": "owner",
          "type": "address"
        }
      ],
      "name": "withdraw",
      "outputs": [],
      "payable": false,
      "stateMutability": "nonpayable",
      "type": "function"
    }
  ],
  "bytecode": "0x608060405234801561001057600080fd5b506040516040806108ff8339810180604052810190808051906020019092919080519060200190929190505050336000806101000a81548173ffffffffffffffffffffffffffffffffffffffff021916908373ffffffffffffffffffffffffffffffffffffffff1602179055506000809054906101000a900473ffffffffffffffffffffffffffffffffffffffff1673ffffffffffffffffffffffffffffffffffffffff16600073ffffffffffffffffffffffffffffffffffffffff167f8be0079c531659141344cd1fd0a4f28419497f9722a3daafe3b4186f6b6457e060405160405180910390a3816004819055508060058190555050506107e7806101186000396000f300608060405260043610610078576000357c0100000000000000000000000000000000000000000000000000000000900463ffffffff16806351cff8d91461007d5780636e908ca3146100c0578063715018a61461010d5780638da5cb5b146101245780638f32d59b1461017b578063f2fde38b146101aa575b600080fd5b34801561008957600080fd5b506100be600480360381019080803573ffffffffffffffffffffffffffffffffffffffff1690602001909291905050506101ed565b005b3480156100cc57600080fd5b5061010b600480360381019080803573ffffffffffffffffffffffffffffffffffffffff169060200190929190803590602001909291905050506102f8565b005b34801561011957600080fd5b506101226104a6565b005b34801561013057600080fd5b50610139610578565b604051808273ffffffffffffffffffffffffffffffffffffffff1673ffffffffffffffffffffffffffffffffffffffff16815260200191505060405180910390f35b34801561018757600080fd5b506101906105a1565b604051808215151515815260200191505060405180910390f35b3480156101b657600080fd5b506101eb600480360381019080803573ffffffffffffffffffffffffffffffffffffffff1690602001909291905050506105f8565b005b60006101f76105a1565b151561020257600080fd5b600260008373ffffffffffffffffffffffffffffffffffffffff1673ffffffffffffffffffffffffffffffffffffffff1681526020019081526020016000205490506000600260008473ffffffffffffffffffffffffffffffffffffffff1673ffffffffffffffffffffffffffffffffffffffff168152602001908152602001600020819055507f40504c5a272d50d1ade1c5960c5dbd19696033da82cf4549798ed3a49e26c2538282604051808373ffffffffffffffffffffffffffffffffffffffff1673ffffffffffffffffffffffffffffffffffffffff1681526020018281526020019250505060405180910390a15050565b60006103026105a1565b151561030d57600080fd5b6103c4610362600360008673ffffffffffffffffffffffffffffffffffffffff1673ffffffffffffffffffffffffffffffffffffffff168152602001908152602001600020544261061790919063ffffffff16565b6103b6600554600160008873ffffffffffffffffffffffffffffffffffffffff1673ffffffffffffffffffffffffffffffffffffffff1681526020019081526020016000205461063890919063ffffffff16565b61066290919063ffffffff16565b905081600160008573ffffffffffffffffffffffffffffffffffffffff1673ffffffffffffffffffffffffffffffffffffffff1681526020019081526020016000208190555042600360008573ffffffffffffffffffffffffffffffffffffffff1673ffffffffffffffffffffffffffffffffffffffff168152602001908152602001600020819055506104a081600260008673ffffffffffffffffffffffffffffffffffffffff1673ffffffffffffffffffffffffffffffffffffffff168152602001908152602001600020546106a090919063ffffffff16565b50505050565b6104ae6105a1565b15156104b957600080fd5b600073ffffffffffffffffffffffffffffffffffffffff166000809054906101000a900473ffffffffffffffffffffffffffffffffffffffff1673ffffffffffffffffffffffffffffffffffffffff167f8be0079c531659141344cd1fd0a4f28419497f9722a3daafe3b4186f6b6457e060405160405180910390a360008060006101000a81548173ffffffffffffffffffffffffffffffffffffffff021916908373ffffffffffffffffffffffffffffffffffffffff160217905550565b60008060009054906101000a900473ffffffffffffffffffffffffffffffffffffffff16905090565b60008060009054906101000a900473ffffffffffffffffffffffffffffffffffffffff1673ffffffffffffffffffffffffffffffffffffffff163373ffffffffffffffffffffffffffffffffffffffff1614905090565b6106006105a1565b151561060b57600080fd5b610614816106c1565b50565b60008083831115151561062957600080fd5b82840390508091505092915050565b60008060008311151561064a57600080fd5b828481151561065557fe5b0490508091505092915050565b60008060008414156106775760009150610699565b828402905082848281151561068857fe5b0414151561069557600080fd5b8091505b5092915050565b60008082840190508381101515156106b757600080fd5b8091505092915050565b600073ffffffffffffffffffffffffffffffffffffffff168173ffffffffffffffffffffffffffffffffffffffff16141515156106fd57600080fd5b8073ffffffffffffffffffffffffffffffffffffffff166000809054906101000a900473ffffffffffffffffffffffffffffffffffffffff1673ffffffffffffffffffffffffffffffffffffffff167f8be0079c531659141344cd1fd0a4f28419497f9722a3daafe3b4186f6b6457e060405160405180910390a3806000806101000a81548173ffffffffffffffffffffffffffffffffffffffff021916908373ffffffffffffffffffffffffffffffffffffffff160217905550505600a165627a7a7230582056658dbc7598e4a5b738fd88a3f5fe4aafb2b1aa7079694c57816423b0abaa260029",
  "source": "pragma solidity ^0.4.24;\n\nimport \"./Ownable.sol\";\nimport \"./SafeMath.sol\";\n\ncontract Payout is Ownable {\n    using SafeMath for uint256;\n\n    event payoutsWithdrawn(address owner, uint256 amount);\n\n    mapping(address => uint256) securityBalance;\n    mapping(address => uint256) dividends;\n    mapping(address => uint256) lastUpdated;\n\n    /*\n    * @dev 1/rate\n    */\n    uint256 private _rate;\n\n    /*\n    * @dev interval in seconds\n    */\n    uint256 private _interval;\n\n    constructor(uint256 rate, uint256 interval) public {\n        _rate = rate;\n        _interval = interval;\n    }\n\n    function calculate(address owner, uint256 token) public onlyOwner() {\n        uint256 total = securityBalance[owner].div(_interval).mul(now.sub(lastUpdated[owner]));\n\n        securityBalance[owner] = token;\n\n        lastUpdated[owner] = now;\n\n        dividends[owner].add(total);\n    }\n\n    function withdraw(address owner) public onlyOwner() {\n        uint256 dividend = dividends[owner];\n\n        dividends[owner] = 0;\n\n        emit payoutsWithdrawn(owner, dividend);\n    }\n}\n",
  "sourcePath": "/mnt/c/Users/Steven/EthSingapore/contracts/Payout.sol",
  "compiler": {
    "name": "solc",
    "version": "0.4.24+commit.e67f0147.Emscripten.clang"
  },
  "schemaVersion": "2.0.1",
  "updatedAt": "2018-12-08T07:06:34.856Z"
}