{
  "contractName": "Payout",
  "abi": [
    {
      "constant": false,
      "inputs": [],
      "name": "renounceOwnership",
      "outputs": [],
      "payable": false,
      "stateMutability": "nonpayable",
      "type": "function"
    },
    {
      "constant": true,
      "inputs": [],
      "name": "owner",
      "outputs": [
        {
          "name": "",
          "type": "address"
        }
      ],
      "payable": false,
      "stateMutability": "view",
      "type": "function"
    },
    {
      "constant": true,
      "inputs": [],
      "name": "isOwner",
      "outputs": [
        {
          "name": "",
          "type": "bool"
        }
      ],
      "payable": false,
      "stateMutability": "view",
      "type": "function"
    },
    {
      "constant": false,
      "inputs": [
        {
          "name": "newOwner",
          "type": "address"
        }
      ],
      "name": "transferOwnership",
      "outputs": [],
      "payable": false,
      "stateMutability": "nonpayable",
      "type": "function"
    },
    {
      "inputs": [
        {
          "name": "interval",
          "type": "uint256"
        }
      ],
      "payable": false,
      "stateMutability": "nonpayable",
      "type": "constructor"
    },
    {
      "anonymous": false,
      "inputs": [
        {
          "indexed": false,
          "name": "rate",
          "type": "bytes32"
        },
        {
          "indexed": false,
          "name": "newValue",
          "type": "uint256"
        }
      ],
      "name": "rateUpdate",
      "type": "event"
    },
    {
      "anonymous": false,
      "inputs": [
        {
          "indexed": false,
          "name": "owner",
          "type": "address"
        },
        {
          "indexed": false,
          "name": "amount",
          "type": "uint256"
        }
      ],
      "name": "securityBalanceUpdate",
      "type": "event"
    },
    {
      "anonymous": false,
      "inputs": [
        {
          "indexed": true,
          "name": "previousOwner",
          "type": "address"
        },
        {
          "indexed": true,
          "name": "newOwner",
          "type": "address"
        }
      ],
      "name": "OwnershipTransferred",
      "type": "event"
    },
    {
      "constant": false,
      "inputs": [
        {
          "name": "rate",
          "type": "bytes32"
        },
        {
          "name": "value",
          "type": "uint256"
        }
      ],
      "name": "updateRate",
      "outputs": [],
      "payable": false,
      "stateMutability": "nonpayable",
      "type": "function"
    },
    {
      "constant": false,
      "inputs": [
        {
          "name": "owner",
          "type": "address"
        },
        {
          "name": "token",
          "type": "uint256"
        }
      ],
      "name": "calculate",
      "outputs": [],
      "payable": false,
      "stateMutability": "nonpayable",
      "type": "function"
    }
  ],
  "bytecode": "0x608060405234801561001057600080fd5b5060405160208061097f83398101806040528101908080519060200190929190505050336000806101000a81548173ffffffffffffffffffffffffffffffffffffffff021916908373ffffffffffffffffffffffffffffffffffffffff1602179055506000809054906101000a900473ffffffffffffffffffffffffffffffffffffffff1673ffffffffffffffffffffffffffffffffffffffff16600073ffffffffffffffffffffffffffffffffffffffff167f8be0079c531659141344cd1fd0a4f28419497f9722a3daafe3b4186f6b6457e060405160405180910390a38060058190555050610879806101066000396000f300608060405260043610610078576000357c0100000000000000000000000000000000000000000000000000000000900463ffffffff1680636e908ca31461007d578063715018a6146100ca5780638da5cb5b146100e15780638f32d59b14610138578063ad04735514610167578063f2fde38b146101a2575b600080fd5b34801561008957600080fd5b506100c8600480360381019080803573ffffffffffffffffffffffffffffffffffffffff169060200190929190803590602001909291905050506101e5565b005b3480156100d657600080fd5b506100df61039b565b005b3480156100ed57600080fd5b506100f661046d565b604051808273ffffffffffffffffffffffffffffffffffffffff1673ffffffffffffffffffffffffffffffffffffffff16815260200191505060405180910390f35b34801561014457600080fd5b5061014d610496565b604051808215151515815260200191505060405180910390f35b34801561017357600080fd5b506101a06004803603810190808035600019169060200190929190803590602001909291905050506104ed565b005b3480156101ae57600080fd5b506101e3600480360381019080803573ffffffffffffffffffffffffffffffffffffffff169060200190929190505050610586565b005b60006101ef610496565b15156101fa57600080fd5b6102b161024f600360008673ffffffffffffffffffffffffffffffffffffffff1673ffffffffffffffffffffffffffffffffffffffff16815260200190815260200160002054426105a590919063ffffffff16565b6102a3600554600160008873ffffffffffffffffffffffffffffffffffffffff1673ffffffffffffffffffffffffffffffffffffffff168152602001908152602001600020546105c690919063ffffffff16565b6105f090919063ffffffff16565b90506102bd838361062e565b42600360008573ffffffffffffffffffffffffffffffffffffffff1673ffffffffffffffffffffffffffffffffffffffff1681526020019081526020016000208190555061035381600260008673ffffffffffffffffffffffffffffffffffffffff1673ffffffffffffffffffffffffffffffffffffffff1681526020019081526020016000205461073290919063ffffffff16565b600260008573ffffffffffffffffffffffffffffffffffffffff1673ffffffffffffffffffffffffffffffffffffffff16815260200190815260200160002081905550505050565b6103a3610496565b15156103ae57600080fd5b600073ffffffffffffffffffffffffffffffffffffffff166000809054906101000a900473ffffffffffffffffffffffffffffffffffffffff1673ffffffffffffffffffffffffffffffffffffffff167f8be0079c531659141344cd1fd0a4f28419497f9722a3daafe3b4186f6b6457e060405160405180910390a360008060006101000a81548173ffffffffffffffffffffffffffffffffffffffff021916908373ffffffffffffffffffffffffffffffffffffffff160217905550565b60008060009054906101000a900473ffffffffffffffffffffffffffffffffffffffff16905090565b60008060009054906101000a900473ffffffffffffffffffffffffffffffffffffffff1673ffffffffffffffffffffffffffffffffffffffff163373ffffffffffffffffffffffffffffffffffffffff1614905090565b6104f5610496565b151561050057600080fd5b80600460008460001916600019168152602001908152602001600020819055507f91f091eb8cd2fdd2ade59ceaf2430eea0e27e0f0ba5fdf3e1322c3d483ecb5d382600460008560001916600019168152602001908152602001600020546040518083600019166000191681526020018281526020019250505060405180910390a15050565b61058e610496565b151561059957600080fd5b6105a281610753565b50565b6000808383111515156105b757600080fd5b82840390508091505092915050565b6000806000831115156105d857600080fd5b82848115156105e357fe5b0490508091505092915050565b60008060008414156106055760009150610627565b828402905082848281151561061657fe5b0414151561062357600080fd5b8091505b5092915050565b61068081600160008573ffffffffffffffffffffffffffffffffffffffff1673ffffffffffffffffffffffffffffffffffffffff1681526020019081526020016000205461073290919063ffffffff16565b600160008473ffffffffffffffffffffffffffffffffffffffff1673ffffffffffffffffffffffffffffffffffffffff168152602001908152602001600020819055507fefbf48157ea1dc709889324fd0750e289c76a5b46c520da714359476d3a5de278282604051808373ffffffffffffffffffffffffffffffffffffffff1673ffffffffffffffffffffffffffffffffffffffff1681526020018281526020019250505060405180910390a15050565b600080828401905083811015151561074957600080fd5b8091505092915050565b600073ffffffffffffffffffffffffffffffffffffffff168173ffffffffffffffffffffffffffffffffffffffff161415151561078f57600080fd5b8073ffffffffffffffffffffffffffffffffffffffff166000809054906101000a900473ffffffffffffffffffffffffffffffffffffffff1673ffffffffffffffffffffffffffffffffffffffff167f8be0079c531659141344cd1fd0a4f28419497f9722a3daafe3b4186f6b6457e060405160405180910390a3806000806101000a81548173ffffffffffffffffffffffffffffffffffffffff021916908373ffffffffffffffffffffffffffffffffffffffff160217905550505600a165627a7a723058206fc8e958c9b0e7b3f58cf9b4a60370144e494d3724861a917dd853f78d4e25980029",
  "source": "pragma solidity ^0.4.24;\n\nimport \"./Ownable.sol\";\nimport \"./SafeMath.sol\";\n\ncontract Payout is Ownable {\n    using SafeMath for uint256;\n\n    event rateUpdate(bytes32 rate, uint256 newValue);\n    event securityBalanceUpdate(address owner, uint amount);\n\n    mapping(address => uint256) securityBalance;\n    mapping(address => uint256) dividendBalance;\n    mapping(address => uint256) lastUpdated;\n    mapping(bytes32 => uint256) rates;\n\n    /*\n    * @dev interval in seconds\n    */\n    uint256 private _interval;\n\n    constructor(uint256 interval) public {\n        _interval = interval;\n    }\n\n    function updateRate(bytes32 rate, uint256 value) external onlyOwner() {\n        rates[rate] = value;\n\n        emit rateUpdate(rate, rates[rate]);\n    }\n\n    function updateSecurityBalance(address owner, uint amount) private {\n        securityBalance[owner] = securityBalance[owner].add(amount);\n\n        emit securityBalanceUpdate(owner, amount);\n    }\n\n    function calculate(address owner, uint256 token) public onlyOwner {\n        uint256 total;\n        // uint256 rate = _calculateRate(token);\n\n        total = securityBalance[owner].div(_interval).mul(now.sub(lastUpdated[owner]));\n\n        updateSecurityBalance(owner, token);\n\n        lastUpdated[owner] = now;\n\n        dividendBalance[owner] = dividendBalance[owner].add(total);\n\n\n    }\n\n    // function _calculateRate(uint256 token) internal returns (uint256 rate){\n\n    //     //conditional parameters i.e. if token > 5 return rates['something']\n\n    //     return 1;\n    // }\n\n}\n",
  "sourcePath": "/Users/CryptoWork/Desktop/EthSingapore/contracts/Payout.sol",
  "compiler": {
    "name": "solc",
    "version": "0.4.24+commit.e67f0147.Emscripten.clang"
  },
  "schemaVersion": "2.0.1",
  "updatedAt": "2018-12-08T09:49:29.670Z"
}