{
  "contractName": "Payout",
  "abi": [
    {
      "constant": false,
      "inputs": [],
      "name": "renounceOwnership",
      "outputs": [],
      "payable": false,
      "stateMutability": "nonpayable",
      "type": "function"
    },
    {
      "constant": true,
      "inputs": [],
      "name": "owner",
      "outputs": [
        {
          "name": "",
          "type": "address"
        }
      ],
      "payable": false,
      "stateMutability": "view",
      "type": "function"
    },
    {
      "constant": true,
      "inputs": [],
      "name": "isOwner",
      "outputs": [
        {
          "name": "",
          "type": "bool"
        }
      ],
      "payable": false,
      "stateMutability": "view",
      "type": "function"
    },
    {
      "constant": false,
      "inputs": [
        {
          "name": "newOwner",
          "type": "address"
        }
      ],
      "name": "transferOwnership",
      "outputs": [],
      "payable": false,
      "stateMutability": "nonpayable",
      "type": "function"
    },
    {
      "inputs": [
        {
          "name": "interval",
          "type": "uint256"
        }
      ],
      "payable": false,
      "stateMutability": "nonpayable",
      "type": "constructor"
    },
    {
      "anonymous": false,
      "inputs": [
        {
          "indexed": false,
          "name": "rate",
          "type": "bytes32"
        },
        {
          "indexed": false,
          "name": "newValue",
          "type": "uint256"
        }
      ],
      "name": "rateUpdate",
      "type": "event"
    },
    {
      "anonymous": false,
      "inputs": [
        {
          "indexed": true,
          "name": "previousOwner",
          "type": "address"
        },
        {
          "indexed": true,
          "name": "newOwner",
          "type": "address"
        }
      ],
      "name": "OwnershipTransferred",
      "type": "event"
    },
    {
      "constant": false,
      "inputs": [
        {
          "name": "rate",
          "type": "bytes32"
        },
        {
          "name": "value",
          "type": "uint256"
        }
      ],
      "name": "updateRate",
      "outputs": [],
      "payable": false,
      "stateMutability": "nonpayable",
      "type": "function"
    },
    {
      "constant": false,
      "inputs": [
        {
          "name": "owner",
          "type": "address"
        },
        {
          "name": "token",
          "type": "uint256"
        }
      ],
      "name": "calculate",
      "outputs": [],
      "payable": false,
      "stateMutability": "nonpayable",
      "type": "function"
    }
  ],
  "bytecode": "0x608060405234801561001057600080fd5b506040516020806107f583398101806040528101908080519060200190929190505050336000806101000a81548173ffffffffffffffffffffffffffffffffffffffff021916908373ffffffffffffffffffffffffffffffffffffffff1602179055506000809054906101000a900473ffffffffffffffffffffffffffffffffffffffff1673ffffffffffffffffffffffffffffffffffffffff16600073ffffffffffffffffffffffffffffffffffffffff167f8be0079c531659141344cd1fd0a4f28419497f9722a3daafe3b4186f6b6457e060405160405180910390a380600481905550506106ef806101066000396000f300608060405260043610610078576000357c0100000000000000000000000000000000000000000000000000000000900463ffffffff1680636e908ca31461007d578063715018a6146100ca5780638da5cb5b146100e15780638f32d59b14610138578063ad04735514610167578063f2fde38b146101a2575b600080fd5b34801561008957600080fd5b506100c8600480360381019080803573ffffffffffffffffffffffffffffffffffffffff169060200190929190803590602001909291905050506101e5565b005b3480156100d657600080fd5b506100df61030a565b005b3480156100ed57600080fd5b506100f66103dc565b604051808273ffffffffffffffffffffffffffffffffffffffff1673ffffffffffffffffffffffffffffffffffffffff16815260200191505060405180910390f35b34801561014457600080fd5b5061014d610405565b604051808215151515815260200191505060405180910390f35b34801561017357600080fd5b506101a060048036038101908080356000191690602001909291908035906020019092919050505061045c565b005b3480156101ae57600080fd5b506101e3600480360381019080803573ffffffffffffffffffffffffffffffffffffffff1690602001909291905050506104f5565b005b6000806101f183610514565b905061026b61025c60045461024e600260008973ffffffffffffffffffffffffffffffffffffffff1673ffffffffffffffffffffffffffffffffffffffff168152602001908152602001600020544261051f90919063ffffffff16565b61054090919063ffffffff16565b8261056a90919063ffffffff16565b915042600260008673ffffffffffffffffffffffffffffffffffffffff1673ffffffffffffffffffffffffffffffffffffffff1681526020019081526020016000208190555061030382600160008773ffffffffffffffffffffffffffffffffffffffff1673ffffffffffffffffffffffffffffffffffffffff168152602001908152602001600020546105a890919063ffffffff16565b5050505050565b610312610405565b151561031d57600080fd5b600073ffffffffffffffffffffffffffffffffffffffff166000809054906101000a900473ffffffffffffffffffffffffffffffffffffffff1673ffffffffffffffffffffffffffffffffffffffff167f8be0079c531659141344cd1fd0a4f28419497f9722a3daafe3b4186f6b6457e060405160405180910390a360008060006101000a81548173ffffffffffffffffffffffffffffffffffffffff021916908373ffffffffffffffffffffffffffffffffffffffff160217905550565b60008060009054906101000a900473ffffffffffffffffffffffffffffffffffffffff16905090565b60008060009054906101000a900473ffffffffffffffffffffffffffffffffffffffff1673ffffffffffffffffffffffffffffffffffffffff163373ffffffffffffffffffffffffffffffffffffffff1614905090565b610464610405565b151561046f57600080fd5b80600360008460001916600019168152602001908152602001600020819055507f91f091eb8cd2fdd2ade59ceaf2430eea0e27e0f0ba5fdf3e1322c3d483ecb5d382600360008560001916600019168152602001908152602001600020546040518083600019166000191681526020018281526020019250505060405180910390a15050565b6104fd610405565b151561050857600080fd5b610511816105c9565b50565b600060019050919050565b60008083831115151561053157600080fd5b82840390508091505092915050565b60008060008311151561055257600080fd5b828481151561055d57fe5b0490508091505092915050565b600080600084141561057f57600091506105a1565b828402905082848281151561059057fe5b0414151561059d57600080fd5b8091505b5092915050565b60008082840190508381101515156105bf57600080fd5b8091505092915050565b600073ffffffffffffffffffffffffffffffffffffffff168173ffffffffffffffffffffffffffffffffffffffff161415151561060557600080fd5b8073ffffffffffffffffffffffffffffffffffffffff166000809054906101000a900473ffffffffffffffffffffffffffffffffffffffff1673ffffffffffffffffffffffffffffffffffffffff167f8be0079c531659141344cd1fd0a4f28419497f9722a3daafe3b4186f6b6457e060405160405180910390a3806000806101000a81548173ffffffffffffffffffffffffffffffffffffffff021916908373ffffffffffffffffffffffffffffffffffffffff160217905550505600a165627a7a723058202354fae2057de9e03c785eadef277056656d61f3541e1590f6e2d3b632a16f130029",
  "source": "pragma solidity ^0.4.24;\n\nimport \"./Ownable.sol\";\nimport \"./SafeMath.sol\";\n\ncontract Payout is Ownable {\n    using SafeMath for uint256;\n\n    event rateUpdate(bytes32 rate, uint256 newValue);\n\n    mapping(address => uint256) dividends;\n    mapping(address => uint256) lastUpdated;\n    mapping(bytes32 => uint256) rates;\n\n    /*\n    * @dev interval in seconds\n    */\n    uint256 private _interval;\n\n    constructor(uint256 interval) public {\n        _interval = interval;\n    }\n\n    function updateRate(bytes32 rate, uint256 value) external onlyOwner() {\n        rates[rate] = value;\n\n        emit rateUpdate(rate, rates[rate]);\n    }\n\n    function calculate(address owner, uint256 token) public {\n        uint256 total;\n        uint256 rate = _calculateRate(token);\n\n        //can utilise delegatecalls for different algorithms?\n        total = rate.mul(now.sub(lastUpdated[owner]).div(_interval));\n\n        lastUpdated[owner] = now;\n\n        dividends[owner].add(total);\n\n\n    }\n\n    function _calculateRate(uint256 token) internal returns (uint256 rate){\n\n        //conditional parameters i.e. if token > 5 return rates['something']\n\n        return 1;\n    }\n\n}\n",
  "sourcePath": "/Users/CryptoWork/Desktop/EthSingapore/contracts/Payout.sol",
  "compiler": {
    "name": "solc",
    "version": "0.4.24+commit.e67f0147.Emscripten.clang"
  },
  "schemaVersion": "2.0.1",
  "updatedAt": "2018-12-08T03:31:18.566Z"
}