{
  "contractName": "SecurityCoin",
  "abi": [
    {
      "constant": true,
      "inputs": [],
      "name": "name",
      "outputs": [
        {
          "name": "",
          "type": "string"
        }
      ],
      "payable": false,
      "stateMutability": "view",
      "type": "function"
    },
    {
      "constant": false,
      "inputs": [
        {
          "name": "spender",
          "type": "address"
        },
        {
          "name": "value",
          "type": "uint256"
        }
      ],
      "name": "approve",
      "outputs": [
        {
          "name": "",
          "type": "bool"
        }
      ],
      "payable": false,
      "stateMutability": "nonpayable",
      "type": "function"
    },
    {
      "constant": true,
      "inputs": [],
      "name": "totalSupply",
      "outputs": [
        {
          "name": "",
          "type": "uint256"
        }
      ],
      "payable": false,
      "stateMutability": "view",
      "type": "function"
    },
    {
      "constant": false,
      "inputs": [
        {
          "name": "from",
          "type": "address"
        },
        {
          "name": "to",
          "type": "address"
        },
        {
          "name": "value",
          "type": "uint256"
        }
      ],
      "name": "transferFrom",
      "outputs": [
        {
          "name": "",
          "type": "bool"
        }
      ],
      "payable": false,
      "stateMutability": "nonpayable",
      "type": "function"
    },
    {
      "constant": true,
      "inputs": [],
      "name": "decimals",
      "outputs": [
        {
          "name": "",
          "type": "uint8"
        }
      ],
      "payable": false,
      "stateMutability": "view",
      "type": "function"
    },
    {
      "constant": false,
      "inputs": [
        {
          "name": "spender",
          "type": "address"
        },
        {
          "name": "addedValue",
          "type": "uint256"
        }
      ],
      "name": "increaseAllowance",
      "outputs": [
        {
          "name": "",
          "type": "bool"
        }
      ],
      "payable": false,
      "stateMutability": "nonpayable",
      "type": "function"
    },
    {
      "constant": true,
      "inputs": [
        {
          "name": "owner",
          "type": "address"
        }
      ],
      "name": "balanceOf",
      "outputs": [
        {
          "name": "",
          "type": "uint256"
        }
      ],
      "payable": false,
      "stateMutability": "view",
      "type": "function"
    },
    {
      "constant": false,
      "inputs": [],
      "name": "renounceOwnership",
      "outputs": [],
      "payable": false,
      "stateMutability": "nonpayable",
      "type": "function"
    },
    {
      "constant": true,
      "inputs": [],
      "name": "owner",
      "outputs": [
        {
          "name": "",
          "type": "address"
        }
      ],
      "payable": false,
      "stateMutability": "view",
      "type": "function"
    },
    {
      "constant": true,
      "inputs": [],
      "name": "isOwner",
      "outputs": [
        {
          "name": "",
          "type": "bool"
        }
      ],
      "payable": false,
      "stateMutability": "view",
      "type": "function"
    },
    {
      "constant": true,
      "inputs": [],
      "name": "symbol",
      "outputs": [
        {
          "name": "",
          "type": "string"
        }
      ],
      "payable": false,
      "stateMutability": "view",
      "type": "function"
    },
    {
      "constant": false,
      "inputs": [
        {
          "name": "spender",
          "type": "address"
        },
        {
          "name": "subtractedValue",
          "type": "uint256"
        }
      ],
      "name": "decreaseAllowance",
      "outputs": [
        {
          "name": "",
          "type": "bool"
        }
      ],
      "payable": false,
      "stateMutability": "nonpayable",
      "type": "function"
    },
    {
      "constant": false,
      "inputs": [
        {
          "name": "to",
          "type": "address"
        },
        {
          "name": "value",
          "type": "uint256"
        }
      ],
      "name": "transfer",
      "outputs": [
        {
          "name": "",
          "type": "bool"
        }
      ],
      "payable": false,
      "stateMutability": "nonpayable",
      "type": "function"
    },
    {
      "constant": true,
      "inputs": [
        {
          "name": "owner",
          "type": "address"
        },
        {
          "name": "spender",
          "type": "address"
        }
      ],
      "name": "allowance",
      "outputs": [
        {
          "name": "",
          "type": "uint256"
        }
      ],
      "payable": false,
      "stateMutability": "view",
      "type": "function"
    },
    {
      "constant": false,
      "inputs": [
        {
          "name": "newOwner",
          "type": "address"
        }
      ],
      "name": "transferOwnership",
      "outputs": [],
      "payable": false,
      "stateMutability": "nonpayable",
      "type": "function"
    },
    {
      "inputs": [
        {
          "name": "totalSupply",
          "type": "uint256"
        },
        {
          "name": "initialRate",
          "type": "uint256"
        },
        {
          "name": "name",
          "type": "string"
        },
        {
          "name": "symbol",
          "type": "string"
        },
        {
          "name": "decimals",
          "type": "uint8"
        }
      ],
      "payable": false,
      "stateMutability": "nonpayable",
      "type": "constructor"
    },
    {
      "anonymous": false,
      "inputs": [
        {
          "indexed": false,
          "name": "purchaser",
          "type": "address"
        },
        {
          "indexed": false,
          "name": "received",
          "type": "uint256"
        }
      ],
      "name": "securityPurchase",
      "type": "event"
    },
    {
      "anonymous": false,
      "inputs": [
        {
          "indexed": false,
          "name": "rate",
          "type": "uint256"
        }
      ],
      "name": "rateUpdate",
      "type": "event"
    },
    {
      "anonymous": false,
      "inputs": [
        {
          "indexed": true,
          "name": "from",
          "type": "address"
        },
        {
          "indexed": true,
          "name": "to",
          "type": "address"
        },
        {
          "indexed": false,
          "name": "value",
          "type": "uint256"
        }
      ],
      "name": "Transfer",
      "type": "event"
    },
    {
      "anonymous": false,
      "inputs": [
        {
          "indexed": true,
          "name": "owner",
          "type": "address"
        },
        {
          "indexed": true,
          "name": "spender",
          "type": "address"
        },
        {
          "indexed": false,
          "name": "value",
          "type": "uint256"
        }
      ],
      "name": "Approval",
      "type": "event"
    },
    {
      "anonymous": false,
      "inputs": [
        {
          "indexed": true,
          "name": "previousOwner",
          "type": "address"
        },
        {
          "indexed": true,
          "name": "newOwner",
          "type": "address"
        }
      ],
      "name": "OwnershipTransferred",
      "type": "event"
    },
    {
      "constant": true,
      "inputs": [],
      "name": "currentRate",
      "outputs": [
        {
          "name": "",
          "type": "uint256"
        }
      ],
      "payable": false,
      "stateMutability": "view",
      "type": "function"
    },
    {
      "constant": false,
      "inputs": [],
      "name": "purchaseSecurity",
      "outputs": [],
      "payable": true,
      "stateMutability": "payable",
      "type": "function"
    },
    {
      "constant": false,
      "inputs": [
        {
          "name": "newRate",
          "type": "uint256"
        }
      ],
      "name": "updateRate",
      "outputs": [],
      "payable": false,
      "stateMutability": "nonpayable",
      "type": "function"
    }
  ],
  "bytecode": "0x60806040523480156200001157600080fd5b506040516200194f3803806200194f833981018060405281019080805190602001909291908051906020019092919080518201929190602001805182019291906020018051906020019092919050505084838383828282336000806101000a81548173ffffffffffffffffffffffffffffffffffffffff021916908373ffffffffffffffffffffffffffffffffffffffff1602179055506000809054906101000a900473ffffffffffffffffffffffffffffffffffffffff1673ffffffffffffffffffffffffffffffffffffffff16600073ffffffffffffffffffffffffffffffffffffffff167f8be0079c531659141344cd1fd0a4f28419497f9722a3daafe3b4186f6b6457e060405160405180910390a382600190805190602001906200013c929190620001d7565b50816002908051906020019062000155929190620001d7565b5080600360006101000a81548160ff021916908360ff16021790555050505083600681905550600654600460003373ffffffffffffffffffffffffffffffffffffffff1673ffffffffffffffffffffffffffffffffffffffff168152602001908152602001600020819055505050505083600781905550505050505062000286565b828054600181600116156101000203166002900490600052602060002090601f016020900481019282601f106200021a57805160ff19168380011785556200024b565b828001600101855582156200024b579182015b828111156200024a5782518255916020019190600101906200022d565b5b5090506200025a91906200025e565b5090565b6200028391905b808211156200027f57600081600090555060010162000265565b5090565b90565b6116b980620002966000396000f3006080604052600436106100fc576000357c0100000000000000000000000000000000000000000000000000000000900463ffffffff16806306fdde0314610101578063095ea7b31461019157806318160ddd146101f657806323b872dd14610221578063313ce567146102a657806339509351146102d757806369ea17711461033c57806370a0823114610369578063715018a6146103c05780638da5cb5b146103d75780638f32d59b1461042e57806395d89b411461045d578063a457c2d7146104ed578063a781820d14610552578063a9059cbb1461055c578063dd62ed3e146105c1578063f2fde38b14610638578063f9f8bdb71461067b575b600080fd5b34801561010d57600080fd5b506101166106a6565b6040518080602001828103825283818151815260200191508051906020019080838360005b8381101561015657808201518184015260208101905061013b565b50505050905090810190601f1680156101835780820380516001836020036101000a031916815260200191505b509250505060405180910390f35b34801561019d57600080fd5b506101dc600480360381019080803573ffffffffffffffffffffffffffffffffffffffff16906020019092919080359060200190929190505050610748565b604051808215151515815260200191505060405180910390f35b34801561020257600080fd5b5061020b610875565b6040518082815260200191505060405180910390f35b34801561022d57600080fd5b5061028c600480360381019080803573ffffffffffffffffffffffffffffffffffffffff169060200190929190803573ffffffffffffffffffffffffffffffffffffffff1690602001909291908035906020019092919050505061087f565b604051808215151515815260200191505060405180910390f35b3480156102b257600080fd5b506102bb610a87565b604051808260ff1660ff16815260200191505060405180910390f35b3480156102e357600080fd5b50610322600480360381019080803573ffffffffffffffffffffffffffffffffffffffff16906020019092919080359060200190929190505050610a9e565b604051808215151515815260200191505060405180910390f35b34801561034857600080fd5b5061036760048036038101908080359060200190929190505050610cd5565b005b34801561037557600080fd5b506103aa600480360381019080803573ffffffffffffffffffffffffffffffffffffffff169060200190929190505050610d2b565b6040518082815260200191505060405180910390f35b3480156103cc57600080fd5b506103d5610d74565b005b3480156103e357600080fd5b506103ec610e46565b604051808273ffffffffffffffffffffffffffffffffffffffff1673ffffffffffffffffffffffffffffffffffffffff16815260200191505060405180910390f35b34801561043a57600080fd5b50610443610e6f565b604051808215151515815260200191505060405180910390f35b34801561046957600080fd5b50610472610ec6565b6040518080602001828103825283818151815260200191508051906020019080838360005b838110156104b2578082015181840152602081019050610497565b50505050905090810190601f1680156104df5780820380516001836020036101000a031916815260200191505b509250505060405180910390f35b3480156104f957600080fd5b50610538600480360381019080803573ffffffffffffffffffffffffffffffffffffffff16906020019092919080359060200190929190505050610f68565b604051808215151515815260200191505060405180910390f35b61055a61119f565b005b34801561056857600080fd5b506105a7600480360381019080803573ffffffffffffffffffffffffffffffffffffffff16906020019092919080359060200190929190505050611252565b604051808215151515815260200191505060405180910390f35b3480156105cd57600080fd5b50610622600480360381019080803573ffffffffffffffffffffffffffffffffffffffff169060200190929190803573ffffffffffffffffffffffffffffffffffffffff169060200190929190505050611269565b6040518082815260200191505060405180910390f35b34801561064457600080fd5b50610679600480360381019080803573ffffffffffffffffffffffffffffffffffffffff1690602001909291905050506112f0565b005b34801561068757600080fd5b5061069061130f565b6040518082815260200191505060405180910390f35b606060018054600181600116156101000203166002900480601f01602080910402602001604051908101604052809291908181526020018280546001816001161561010002031660029004801561073e5780601f106107135761010080835404028352916020019161073e565b820191906000526020600020905b81548152906001019060200180831161072157829003601f168201915b5050505050905090565b60008073ffffffffffffffffffffffffffffffffffffffff168373ffffffffffffffffffffffffffffffffffffffff161415151561078557600080fd5b81600560003373ffffffffffffffffffffffffffffffffffffffff1673ffffffffffffffffffffffffffffffffffffffff16815260200190815260200160002060008573ffffffffffffffffffffffffffffffffffffffff1673ffffffffffffffffffffffffffffffffffffffff168152602001908152602001600020819055508273ffffffffffffffffffffffffffffffffffffffff163373ffffffffffffffffffffffffffffffffffffffff167f8c5be1e5ebec7d5bd14f71427d1e84f3dd0314c0f7b2291e5b200ac8c7c3b925846040518082815260200191505060405180910390a36001905092915050565b6000600654905090565b600061091082600560008773ffffffffffffffffffffffffffffffffffffffff1673ffffffffffffffffffffffffffffffffffffffff16815260200190815260200160002060003373ffffffffffffffffffffffffffffffffffffffff1673ffffffffffffffffffffffffffffffffffffffff1681526020019081526020016000205461131990919063ffffffff16565b600560008673ffffffffffffffffffffffffffffffffffffffff1673ffffffffffffffffffffffffffffffffffffffff16815260200190815260200160002060003373ffffffffffffffffffffffffffffffffffffffff1673ffffffffffffffffffffffffffffffffffffffff1681526020019081526020016000208190555061099b84848461133a565b3373ffffffffffffffffffffffffffffffffffffffff168473ffffffffffffffffffffffffffffffffffffffff167f8c5be1e5ebec7d5bd14f71427d1e84f3dd0314c0f7b2291e5b200ac8c7c3b925600560008873ffffffffffffffffffffffffffffffffffffffff1673ffffffffffffffffffffffffffffffffffffffff16815260200190815260200160002060003373ffffffffffffffffffffffffffffffffffffffff1673ffffffffffffffffffffffffffffffffffffffff168152602001908152602001600020546040518082815260200191505060405180910390a3600190509392505050565b6000600360009054906101000a900460ff16905090565b60008073ffffffffffffffffffffffffffffffffffffffff168373ffffffffffffffffffffffffffffffffffffffff1614151515610adb57600080fd5b610b6a82600560003373ffffffffffffffffffffffffffffffffffffffff1673ffffffffffffffffffffffffffffffffffffffff16815260200190815260200160002060008673ffffffffffffffffffffffffffffffffffffffff1673ffffffffffffffffffffffffffffffffffffffff1681526020019081526020016000205461150a90919063ffffffff16565b600560003373ffffffffffffffffffffffffffffffffffffffff1673ffffffffffffffffffffffffffffffffffffffff16815260200190815260200160002060008573ffffffffffffffffffffffffffffffffffffffff1673ffffffffffffffffffffffffffffffffffffffff168152602001908152602001600020819055508273ffffffffffffffffffffffffffffffffffffffff163373ffffffffffffffffffffffffffffffffffffffff167f8c5be1e5ebec7d5bd14f71427d1e84f3dd0314c0f7b2291e5b200ac8c7c3b925600560003373ffffffffffffffffffffffffffffffffffffffff1673ffffffffffffffffffffffffffffffffffffffff16815260200190815260200160002060008773ffffffffffffffffffffffffffffffffffffffff1673ffffffffffffffffffffffffffffffffffffffff168152602001908152602001600020546040518082815260200191505060405180910390a36001905092915050565b610cdd610e6f565b1515610ce857600080fd5b806007819055507f3bcdf677b315310f19c0fcb26350aac4597cd25d0836fa26af35144895520b376007546040518082815260200191505060405180910390a150565b6000600460008373ffffffffffffffffffffffffffffffffffffffff1673ffffffffffffffffffffffffffffffffffffffff168152602001908152602001600020549050919050565b610d7c610e6f565b1515610d8757600080fd5b600073ffffffffffffffffffffffffffffffffffffffff166000809054906101000a900473ffffffffffffffffffffffffffffffffffffffff1673ffffffffffffffffffffffffffffffffffffffff167f8be0079c531659141344cd1fd0a4f28419497f9722a3daafe3b4186f6b6457e060405160405180910390a360008060006101000a81548173ffffffffffffffffffffffffffffffffffffffff021916908373ffffffffffffffffffffffffffffffffffffffff160217905550565b60008060009054906101000a900473ffffffffffffffffffffffffffffffffffffffff16905090565b60008060009054906101000a900473ffffffffffffffffffffffffffffffffffffffff1673ffffffffffffffffffffffffffffffffffffffff163373ffffffffffffffffffffffffffffffffffffffff1614905090565b606060028054600181600116156101000203166002900480601f016020809104026020016040519081016040528092919081815260200182805460018160011615610100020316600290048015610f5e5780601f10610f3357610100808354040283529160200191610f5e565b820191906000526020600020905b815481529060010190602001808311610f4157829003601f168201915b5050505050905090565b60008073ffffffffffffffffffffffffffffffffffffffff168373ffffffffffffffffffffffffffffffffffffffff1614151515610fa557600080fd5b61103482600560003373ffffffffffffffffffffffffffffffffffffffff1673ffffffffffffffffffffffffffffffffffffffff16815260200190815260200160002060008673ffffffffffffffffffffffffffffffffffffffff1673ffffffffffffffffffffffffffffffffffffffff1681526020019081526020016000205461131990919063ffffffff16565b600560003373ffffffffffffffffffffffffffffffffffffffff1673ffffffffffffffffffffffffffffffffffffffff16815260200190815260200160002060008573ffffffffffffffffffffffffffffffffffffffff1673ffffffffffffffffffffffffffffffffffffffff168152602001908152602001600020819055508273ffffffffffffffffffffffffffffffffffffffff163373ffffffffffffffffffffffffffffffffffffffff167f8c5be1e5ebec7d5bd14f71427d1e84f3dd0314c0f7b2291e5b200ac8c7c3b925600560003373ffffffffffffffffffffffffffffffffffffffff1673ffffffffffffffffffffffffffffffffffffffff16815260200190815260200160002060008773ffffffffffffffffffffffffffffffffffffffff1673ffffffffffffffffffffffffffffffffffffffff168152602001908152602001600020546040518082815260200191505060405180910390a36001905092915050565b60006111d0670de0b6b3a76400006111c26007543461152b90919063ffffffff16565b61156990919063ffffffff16565b90506111e46111dd610e46565b338361133a565b7f235814053d4378e82bc1d8d42b2ee6d778183b425ddd882d8b9c17c9015fe6b03382604051808373ffffffffffffffffffffffffffffffffffffffff1673ffffffffffffffffffffffffffffffffffffffff1681526020018281526020019250505060405180910390a150565b600061125f33848461133a565b6001905092915050565b6000600560008473ffffffffffffffffffffffffffffffffffffffff1673ffffffffffffffffffffffffffffffffffffffff16815260200190815260200160002060008373ffffffffffffffffffffffffffffffffffffffff1673ffffffffffffffffffffffffffffffffffffffff16815260200190815260200160002054905092915050565b6112f8610e6f565b151561130357600080fd5b61130c81611593565b50565b6000600754905090565b60008083831115151561132b57600080fd5b82840390508091505092915050565b600073ffffffffffffffffffffffffffffffffffffffff168273ffffffffffffffffffffffffffffffffffffffff161415151561137657600080fd5b6113c881600460008673ffffffffffffffffffffffffffffffffffffffff1673ffffffffffffffffffffffffffffffffffffffff1681526020019081526020016000205461131990919063ffffffff16565b600460008573ffffffffffffffffffffffffffffffffffffffff1673ffffffffffffffffffffffffffffffffffffffff1681526020019081526020016000208190555061145d81600460008573ffffffffffffffffffffffffffffffffffffffff1673ffffffffffffffffffffffffffffffffffffffff1681526020019081526020016000205461150a90919063ffffffff16565b600460008473ffffffffffffffffffffffffffffffffffffffff1673ffffffffffffffffffffffffffffffffffffffff168152602001908152602001600020819055508173ffffffffffffffffffffffffffffffffffffffff168373ffffffffffffffffffffffffffffffffffffffff167fddf252ad1be2c89b69c2b068fc378daa952ba7f163c4a11628f55a4df523b3ef836040518082815260200191505060405180910390a3505050565b600080828401905083811015151561152157600080fd5b8091505092915050565b60008060008414156115405760009150611562565b828402905082848281151561155157fe5b0414151561155e57600080fd5b8091505b5092915050565b60008060008311151561157b57600080fd5b828481151561158657fe5b0490508091505092915050565b600073ffffffffffffffffffffffffffffffffffffffff168173ffffffffffffffffffffffffffffffffffffffff16141515156115cf57600080fd5b8073ffffffffffffffffffffffffffffffffffffffff166000809054906101000a900473ffffffffffffffffffffffffffffffffffffffff1673ffffffffffffffffffffffffffffffffffffffff167f8be0079c531659141344cd1fd0a4f28419497f9722a3daafe3b4186f6b6457e060405160405180910390a3806000806101000a81548173ffffffffffffffffffffffffffffffffffffffff021916908373ffffffffffffffffffffffffffffffffffffffff160217905550505600a165627a7a7230582048ffbdee07a9e885120d7fab4ba4ef9d8911ce90f384380741d4008ea0adf2740029",
  "source": "pragma solidity ^0.4.24;\n\nimport \"./Ownable.sol\";\nimport \"./ERC20.sol\";\n\n/*\n* @dev\n*/\n\ncontract SecurityCoinFactory {\n    address[] public Tokens;\n\n    function newSecurityCoin(uint256 totalSupply, uint256 initialRate, string name, string symbol, uint8 decimals)\n    public\n    returns (address)\n    {\n        address newCoinAddress = new SecurityCoin(totalSupply, initialRate, name, symbol, decimals);\n        emit NewSecurityCoin(newCoinAddress, totalSupply, initialRate, name, symbol, decimals);\n        Tokens.push(newCoinAddress);\n        return newCoinAddress;\n    }\n\n    event NewSecurityCoin(address indexed newCoinAdress, uint256 totalSupply, uint256 initialRate, string name, string symbol, uint8 decimals);\n}\n\ncontract SecurityCoin is Ownable, ERC20 {\n    event securityPurchase(address purchaser, uint256 received);\n    event rateUpdate(uint256 rate);\n\n    /*\n    * @dev 1 ETH : [_rate] tokens\n    */\n    uint256 private _rate;\n\n    constructor  (uint256 totalSupply, uint256 initialRate, string name, string symbol, uint8 decimals) public ERC20(totalSupply, name, symbol, decimals) {\n        _rate = initialRate;\n    }\n\n    function currentRate() public view returns (uint256) {\n        return _rate;\n    }\n\n    function purchaseSecurity() public payable {\n        uint256 token;\n\n        token = msg.value.mul(_rate).div(1e18);\n        _transfer(owner(), msg.sender, token);\n\n        emit securityPurchase(msg.sender, token);\n    }\n\n    function updateRate(uint256 newRate) external onlyOwner() {\n        _rate = newRate;\n\n        emit rateUpdate(_rate);\n    }\n}\n",
  "sourcePath": "/mnt/c/Users/Steven/EthSingapore/contracts/SecurityCoin.sol",
  "compiler": {
    "name": "solc",
    "version": "0.4.24+commit.e67f0147.Emscripten.clang"
  },
  "schemaVersion": "2.0.1",
  "updatedAt": "2018-12-08T07:06:34.854Z"
}